{
  "contractName": "Donation",
  "abi": [
    {
      "anonymous": false,
      "inputs": [
        {
          "indexed": false,
          "internalType": "uint256",
          "name": "id",
          "type": "uint256"
        },
        {
          "indexed": true,
          "internalType": "address",
          "name": "donateur",
          "type": "address"
        },
        {
          "indexed": false,
          "internalType": "uint256",
          "name": "montant",
          "type": "uint256"
        },
        {
          "indexed": false,
          "internalType": "uint256",
          "name": "timestamp",
          "type": "uint256"
        }
      ],
      "name": "DonationReceived",
      "type": "event"
    },
    {
      "inputs": [
        {
          "internalType": "uint256",
          "name": "",
          "type": "uint256"
        }
      ],
      "name": "donations",
      "outputs": [
        {
          "internalType": "uint256",
          "name": "id",
          "type": "uint256"
        },
        {
          "internalType": "address",
          "name": "donateur",
          "type": "address"
        },
        {
          "internalType": "uint256",
          "name": "montant",
          "type": "uint256"
        },
        {
          "internalType": "uint256",
          "name": "timestamp",
          "type": "uint256"
        }
      ],
      "stateMutability": "view",
      "type": "function",
      "constant": true
    },
    {
      "inputs": [
        {
          "internalType": "address",
          "name": "",
          "type": "address"
        },
        {
          "internalType": "uint256",
          "name": "",
          "type": "uint256"
        }
      ],
      "name": "donationsByDonator",
      "outputs": [
        {
          "internalType": "uint256",
          "name": "",
          "type": "uint256"
        }
      ],
      "stateMutability": "view",
      "type": "function",
      "constant": true
    },
    {
      "inputs": [],
      "name": "nextId",
      "outputs": [
        {
          "internalType": "uint256",
          "name": "",
          "type": "uint256"
        }
      ],
      "stateMutability": "view",
      "type": "function",
      "constant": true
    },
    {
      "inputs": [],
      "name": "createDonation",
      "outputs": [],
      "stateMutability": "payable",
      "type": "function",
      "payable": true
    },
    {
      "inputs": [
        {
          "internalType": "address",
          "name": "_donator",
          "type": "address"
        }
      ],
      "name": "getDonationsByDonator",
      "outputs": [
        {
          "internalType": "uint256[]",
          "name": "",
          "type": "uint256[]"
        }
      ],
      "stateMutability": "view",
      "type": "function",
      "constant": true
    },
    {
      "inputs": [
        {
          "internalType": "uint256",
          "name": "_id",
          "type": "uint256"
        }
      ],
      "name": "getDonation",
      "outputs": [
        {
          "components": [
            {
              "internalType": "uint256",
              "name": "id",
              "type": "uint256"
            },
            {
              "internalType": "address",
              "name": "donateur",
              "type": "address"
            },
            {
              "internalType": "uint256",
              "name": "montant",
              "type": "uint256"
            },
            {
              "internalType": "uint256",
              "name": "timestamp",
              "type": "uint256"
            }
          ],
          "internalType": "struct Donation.DonationInfo",
          "name": "",
          "type": "tuple"
        }
      ],
      "stateMutability": "view",
      "type": "function",
      "constant": true
    }
  ],
  "bytecode": "0x608060405234801561001057600080fd5b50610a6f806100206000396000f3fe6080604052600436106100555760003560e01c806308196a9e1461005a57806361b8ce8c146100645780639c10f4fe1461008f578063aeda07f8146100cc578063ef07a81f14610109578063f8626af814610146575b600080fd5b610062610186565b005b34801561007057600080fd5b50610079610354565b6040516100869190610876565b60405180910390f35b34801561009b57600080fd5b506100b660048036038101906100b191906105be565b61035a565b6040516100c391906107f9565b60405180910390f35b3480156100d857600080fd5b506100f360048036038101906100ee91906105e7565b6103f1565b6040516101009190610876565b60405180910390f35b34801561011557600080fd5b50610130600480360381019061012b9190610623565b610422565b60405161013d919061085b565b60405180910390f35b34801561015257600080fd5b5061016d60048036038101906101689190610623565b610506565b60405161017d9493929190610891565b60405180910390f35b600034116101c9576040517f08c379a00000000000000000000000000000000000000000000000000000000081526004016101c09061081b565b60405180910390fd5b6000600254905060405180608001604052808281526020013373ffffffffffffffffffffffffffffffffffffffff168152602001348152602001428152506000808381526020019081526020016000206000820151816000015560208201518160010160006101000a81548173ffffffffffffffffffffffffffffffffffffffff021916908373ffffffffffffffffffffffffffffffffffffffff1602179055506040820151816002015560608201518160030155905050600160003373ffffffffffffffffffffffffffffffffffffffff1673ffffffffffffffffffffffffffffffffffffffff168152602001908152602001600020819080600181540180825580915050600190039060005260206000200160009091909190915055600260008154809291906102fa90610993565b91905055503373ffffffffffffffffffffffffffffffffffffffff167f3dbea1b4ce5f95137fdcac9b1d685825c3d70ace830df1ca5a181d3887add410823442604051610349939291906108d6565b60405180910390a250565b60025481565b6060600160008373ffffffffffffffffffffffffffffffffffffffff1673ffffffffffffffffffffffffffffffffffffffff1681526020019081526020016000208054806020026020016040519081016040528092919081815260200182805480156103e557602002820191906000526020600020905b8154815260200190600101908083116103d1575b50505050509050919050565b6001602052816000526040600020818154811061040d57600080fd5b90600052602060002001600091509150505481565b61042a610556565b600254821061046e576040517f08c379a00000000000000000000000000000000000000000000000000000000081526004016104659061083b565b60405180910390fd5b600080838152602001908152602001600020604051806080016040529081600082015481526020016001820160009054906101000a900473ffffffffffffffffffffffffffffffffffffffff1673ffffffffffffffffffffffffffffffffffffffff1673ffffffffffffffffffffffffffffffffffffffff168152602001600282015481526020016003820154815250509050919050565b60006020528060005260406000206000915090508060000154908060010160009054906101000a900473ffffffffffffffffffffffffffffffffffffffff16908060020154908060030154905084565b604051806080016040528060008152602001600073ffffffffffffffffffffffffffffffffffffffff16815260200160008152602001600081525090565b6000813590506105a381610a0b565b92915050565b6000813590506105b881610a22565b92915050565b6000602082840312156105d057600080fd5b60006105de84828501610594565b91505092915050565b600080604083850312156105fa57600080fd5b600061060885828601610594565b9250506020610619858286016105a9565b9150509250929050565b60006020828403121561063557600080fd5b6000610643848285016105a9565b91505092915050565b600061065883836107db565b60208301905092915050565b61066d81610957565b82525050565b61067c81610957565b82525050565b600061068d8261091d565b6106978185610935565b93506106a28361090d565b8060005b838110156106d35781516106ba888261064c565b97506106c583610928565b9250506001810190506106a6565b5085935050505092915050565b60006106ed602983610946565b91507f4c65206d6f6e74616e7420647520646f6e20646f69742065747265207375706560008301527f72696575722061203000000000000000000000000000000000000000000000006020830152604082019050919050565b6000610753601783610946565b91507f494420646520646f6e6174696f6e20696e76616c6964650000000000000000006000830152602082019050919050565b60808201600082015161079c60008501826107db565b5060208201516107af6020850182610664565b5060408201516107c260408501826107db565b5060608201516107d560608501826107db565b50505050565b6107e481610989565b82525050565b6107f381610989565b82525050565b600060208201905081810360008301526108138184610682565b905092915050565b60006020820190508181036000830152610834816106e0565b9050919050565b6000602082019050818103600083015261085481610746565b9050919050565b60006080820190506108706000830184610786565b92915050565b600060208201905061088b60008301846107ea565b92915050565b60006080820190506108a660008301876107ea565b6108b36020830186610673565b6108c060408301856107ea565b6108cd60608301846107ea565b95945050505050565b60006060820190506108eb60008301866107ea565b6108f860208301856107ea565b61090560408301846107ea565b949350505050565b6000819050602082019050919050565b600081519050919050565b6000602082019050919050565b600082825260208201905092915050565b600082825260208201905092915050565b600061096282610969565b9050919050565b600073ffffffffffffffffffffffffffffffffffffffff82169050919050565b6000819050919050565b600061099e82610989565b91507fffffffffffffffffffffffffffffffffffffffffffffffffffffffffffffffff8214156109d1576109d06109dc565b5b600182019050919050565b7f4e487b7100000000000000000000000000000000000000000000000000000000600052601160045260246000fd5b610a1481610957565b8114610a1f57600080fd5b50565b610a2b81610989565b8114610a3657600080fd5b5056fea2646970667358221220d6e37b27fa8dc16f76972b9fbbf8ef0f4b996aaa81cc6fc771d0f48938719bd964736f6c63430008000033",
  "immutableReferences": {},
  "source": "// SPDX-License-Identifier: MIT\r\npragma solidity ^0.8.0;\r\n\r\ncontract Donation {\r\n    struct DonationInfo {\r\n        uint256 id;\r\n        address donateur;\r\n        uint256 montant;\r\n        uint256 timestamp;\r\n    }\r\n\r\n    mapping(uint256 => DonationInfo) public donations;\r\n    mapping(address => uint256[]) public donationsByDonator;\r\n    uint256 public nextId;\r\n\r\n    event DonationReceived(uint256 id, address indexed donateur, uint256 montant, uint256 timestamp);\r\n\r\n    // Ajout d'un commentaire explicatif\r\n    /// @notice Cre une nouvelle donation\r\n    /// @dev Le montant de la donation est envoy avec la transaction\r\n    function createDonation() public payable {\r\n        require(msg.value > 0, \"Le montant du don doit etre superieur a 0\");\r\n\r\n        uint256 id = nextId;\r\n        donations[id] = DonationInfo(id, msg.sender, msg.value, block.timestamp);\r\n        donationsByDonator[msg.sender].push(id);\r\n        nextId++;\r\n\r\n        emit DonationReceived(id, msg.sender, msg.value, block.timestamp);\r\n    }\r\n\r\n    /// @notice Rcupre les IDs des donations faites par un donateur spcifique\r\n    /// @param _donator L'adresse du donateur\r\n    /// @return Un tableau des IDs de donation\r\n    function getDonationsByDonator(address _donator) public view returns (uint256[] memory) {\r\n        return donationsByDonator[_donator];\r\n    }\r\n\r\n    /// @notice Rcupre les informations d'une donation spcifique\r\n    /// @param _id L'ID de la donation\r\n    /// @return Les informations de la donation\r\n    function getDonation(uint256 _id) public view returns (DonationInfo memory) {\r\n        require(_id < nextId, \"ID de donation invalide\");\r\n        return donations[_id];\r\n    }\r\n}",
  "sourcePath": "C:\\Users\\Yvann\\Documents\\Cours\\donation-dapp\\contracts\\Donation.sol",
  "compiler": {
    "name": "solc",
    "version": "0.8.0+commit.c7dfd78e.Emscripten.clang"
  },
  "schemaVersion": "3.4.16",
  "updatedAt": "2024-07-04T22:08:40.365Z",
  "networkType": "ethereum",
  "devdoc": {
    "kind": "dev",
    "methods": {
      "createDonation()": {
        "details": "Le montant de la donation est envoy avec la transaction"
      },
      "getDonation(uint256)": {
        "params": {
          "_id": "L'ID de la donation"
        },
        "returns": {
          "_0": "Les informations de la donation"
        }
      },
      "getDonationsByDonator(address)": {
        "params": {
          "_donator": "L'adresse du donateur"
        },
        "returns": {
          "_0": "Un tableau des IDs de donation"
        }
      }
    },
    "version": 1
  },
  "userdoc": {
    "kind": "user",
    "methods": {
      "createDonation()": {
        "notice": "Cre une nouvelle donation"
      },
      "getDonation(uint256)": {
        "notice": "Rcupre les informations d'une donation spcifique"
      },
      "getDonationsByDonator(address)": {
        "notice": "Rcupre les IDs des donations faites par un donateur spcifique"
      }
    },
    "version": 1
  }
}